{
    "contractName": "NFTs",
    "abi": [
        {
            "inputs": [
                {
                    "internalType": "address",
                    "name": "NftTokenAddress",
                    "type": "address"
                }
            ],
            "stateMutability": "nonpayable",
            "type": "constructor"
        },
        {
            "anonymous": false,
            "inputs": [
                {
                    "indexed": true,
                    "internalType": "address",
                    "name": "owner",
                    "type": "address"
                },
                {
                    "indexed": true,
                    "internalType": "address",
                    "name": "approved",
                    "type": "address"
                },
                {
                    "indexed": true,
                    "internalType": "uint256",
                    "name": "tokenId",
                    "type": "uint256"
                }
            ],
            "name": "Approval",
            "type": "event"
        },
        {
            "anonymous": false,
            "inputs": [
                {
                    "indexed": true,
                    "internalType": "address",
                    "name": "owner",
                    "type": "address"
                },
                {
                    "indexed": true,
                    "internalType": "address",
                    "name": "operator",
                    "type": "address"
                },
                {
                    "indexed": false,
                    "internalType": "bool",
                    "name": "approved",
                    "type": "bool"
                }
            ],
            "name": "ApprovalForAll",
            "type": "event"
        },
        {
            "anonymous": false,
            "inputs": [
                {
                    "indexed": false,
                    "internalType": "uint256",
                    "name": "ID",
                    "type": "uint256"
                },
                {
                    "indexed": false,
                    "internalType": "string",
                    "name": "URI",
                    "type": "string"
                }
            ],
            "name": "NftMinted",
            "type": "event"
        },
        {
            "anonymous": false,
            "inputs": [
                {
                    "indexed": true,
                    "internalType": "address",
                    "name": "from",
                    "type": "address"
                },
                {
                    "indexed": true,
                    "internalType": "address",
                    "name": "to",
                    "type": "address"
                },
                {
                    "indexed": true,
                    "internalType": "uint256",
                    "name": "tokenId",
                    "type": "uint256"
                }
            ],
            "name": "Transfer",
            "type": "event"
        },
        {
            "inputs": [
                {
                    "internalType": "uint256",
                    "name": "",
                    "type": "uint256"
                }
            ],
            "name": "AllNFTs",
            "outputs": [
                {
                    "internalType": "address",
                    "name": "owner",
                    "type": "address"
                },
                {
                    "internalType": "uint256",
                    "name": "id",
                    "type": "uint256"
                },
                {
                    "internalType": "string",
                    "name": "name",
                    "type": "string"
                },
                {
                    "internalType": "string",
                    "name": "description",
                    "type": "string"
                },
                {
                    "internalType": "string",
                    "name": "imageUri",
                    "type": "string"
                },
                {
                    "internalType": "string",
                    "name": "uri",
                    "type": "string"
                },
                {
                    "internalType": "bool",
                    "name": "isSelling",
                    "type": "bool"
                },
                {
                    "internalType": "uint256",
                    "name": "price",
                    "type": "uint256"
                },
                {
                    "internalType": "bool",
                    "name": "isStaking",
                    "type": "bool"
                },
                {
                    "internalType": "uint256",
                    "name": "startStakeDate",
                    "type": "uint256"
                }
            ],
            "stateMutability": "view",
            "type": "function"
        },
        {
            "inputs": [
                {
                    "internalType": "address",
                    "name": "",
                    "type": "address"
                }
            ],
            "name": "MintCount",
            "outputs": [
                {
                    "internalType": "uint256",
                    "name": "",
                    "type": "uint256"
                }
            ],
            "stateMutability": "view",
            "type": "function"
        },
        {
            "inputs": [
                {
                    "internalType": "address",
                    "name": "to",
                    "type": "address"
                },
                {
                    "internalType": "uint256",
                    "name": "tokenId",
                    "type": "uint256"
                }
            ],
            "name": "approve",
            "outputs": [],
            "stateMutability": "nonpayable",
            "type": "function"
        },
        {
            "inputs": [
                {
                    "internalType": "address",
                    "name": "owner",
                    "type": "address"
                }
            ],
            "name": "balanceOf",
            "outputs": [
                {
                    "internalType": "uint256",
                    "name": "",
                    "type": "uint256"
                }
            ],
            "stateMutability": "view",
            "type": "function"
        },
        {
            "inputs": [
                {
                    "internalType": "uint256",
                    "name": "tokenId",
                    "type": "uint256"
                }
            ],
            "name": "getApproved",
            "outputs": [
                {
                    "internalType": "address",
                    "name": "",
                    "type": "address"
                }
            ],
            "stateMutability": "view",
            "type": "function"
        },
        {
            "inputs": [
                {
                    "internalType": "uint256",
                    "name": "_tokenId",
                    "type": "uint256"
                }
            ],
            "name": "getNFT",
            "outputs": [
                {
                    "components": [
                        {
                            "internalType": "address",
                            "name": "owner",
                            "type": "address"
                        },
                        {
                            "internalType": "uint256",
                            "name": "id",
                            "type": "uint256"
                        },
                        {
                            "internalType": "string",
                            "name": "name",
                            "type": "string"
                        },
                        {
                            "internalType": "string",
                            "name": "description",
                            "type": "string"
                        },
                        {
                            "internalType": "string",
                            "name": "imageUri",
                            "type": "string"
                        },
                        {
                            "internalType": "string",
                            "name": "uri",
                            "type": "string"
                        },
                        {
                            "internalType": "bool",
                            "name": "isSelling",
                            "type": "bool"
                        },
                        {
                            "internalType": "uint256",
                            "name": "price",
                            "type": "uint256"
                        },
                        {
                            "internalType": "bool",
                            "name": "isStaking",
                            "type": "bool"
                        },
                        {
                            "internalType": "uint256",
                            "name": "startStakeDate",
                            "type": "uint256"
                        }
                    ],
                    "internalType": "struct NFTs.NFT",
                    "name": "",
                    "type": "tuple"
                }
            ],
            "stateMutability": "view",
            "type": "function"
        },
        {
            "inputs": [
                {
                    "internalType": "uint256",
                    "name": "tokenId",
                    "type": "uint256"
                }
            ],
            "name": "getOwner",
            "outputs": [
                {
                    "internalType": "address",
                    "name": "",
                    "type": "address"
                }
            ],
            "stateMutability": "view",
            "type": "function"
        },
        {
            "inputs": [],
            "name": "getTotalNFTsCount",
            "outputs": [
                {
                    "internalType": "uint256",
                    "name": "",
                    "type": "uint256"
                }
            ],
            "stateMutability": "view",
            "type": "function"
        },
        {
            "inputs": [
                {
                    "internalType": "address",
                    "name": "owner",
                    "type": "address"
                }
            ],
            "name": "isApproved",
            "outputs": [
                {
                    "internalType": "bool",
                    "name": "",
                    "type": "bool"
                }
            ],
            "stateMutability": "view",
            "type": "function"
        },
        {
            "inputs": [
                {
                    "internalType": "address",
                    "name": "owner",
                    "type": "address"
                },
                {
                    "internalType": "address",
                    "name": "operator",
                    "type": "address"
                }
            ],
            "name": "isApprovedForAll",
            "outputs": [
                {
                    "internalType": "bool",
                    "name": "",
                    "type": "bool"
                }
            ],
            "stateMutability": "view",
            "type": "function"
        },
        {
            "inputs": [
                {
                    "internalType": "address",
                    "name": "owner",
                    "type": "address"
                },
                {
                    "internalType": "uint256",
                    "name": "tokenId",
                    "type": "uint256"
                },
                {
                    "internalType": "uint256",
                    "name": "price",
                    "type": "uint256"
                }
            ],
            "name": "listNFT",
            "outputs": [],
            "stateMutability": "nonpayable",
            "type": "function"
        },
        {
            "inputs": [
                {
                    "internalType": "string",
                    "name": "_name",
                    "type": "string"
                },
                {
                    "internalType": "string",
                    "name": "_description",
                    "type": "string"
                },
                {
                    "internalType": "string",
                    "name": "_imageURI",
                    "type": "string"
                },
                {
                    "internalType": "string",
                    "name": "_tokenURI",
                    "type": "string"
                },
                {
                    "internalType": "uint256",
                    "name": "price",
                    "type": "uint256"
                }
            ],
            "name": "mintNFT",
            "outputs": [],
            "stateMutability": "nonpayable",
            "type": "function"
        },
        {
            "inputs": [],
            "name": "name",
            "outputs": [
                {
                    "internalType": "string",
                    "name": "",
                    "type": "string"
                }
            ],
            "stateMutability": "view",
            "type": "function"
        },
        {
            "inputs": [
                {
                    "internalType": "uint256",
                    "name": "tokenId",
                    "type": "uint256"
                }
            ],
            "name": "ownerOf",
            "outputs": [
                {
                    "internalType": "address",
                    "name": "",
                    "type": "address"
                }
            ],
            "stateMutability": "view",
            "type": "function"
        },
        {
            "inputs": [
                {
                    "internalType": "address",
                    "name": "from",
                    "type": "address"
                },
                {
                    "internalType": "address",
                    "name": "to",
                    "type": "address"
                },
                {
                    "internalType": "uint256",
                    "name": "tokenId",
                    "type": "uint256"
                }
            ],
            "name": "safeTransferFrom",
            "outputs": [],
            "stateMutability": "nonpayable",
            "type": "function"
        },
        {
            "inputs": [
                {
                    "internalType": "address",
                    "name": "from",
                    "type": "address"
                },
                {
                    "internalType": "address",
                    "name": "to",
                    "type": "address"
                },
                {
                    "internalType": "uint256",
                    "name": "tokenId",
                    "type": "uint256"
                },
                {
                    "internalType": "bytes",
                    "name": "data",
                    "type": "bytes"
                }
            ],
            "name": "safeTransferFrom",
            "outputs": [],
            "stateMutability": "nonpayable",
            "type": "function"
        },
        {
            "inputs": [
                {
                    "internalType": "uint256",
                    "name": "tokenId",
                    "type": "uint256"
                },
                {
                    "internalType": "uint256",
                    "name": "price",
                    "type": "uint256"
                }
            ],
            "name": "sellNFT",
            "outputs": [],
            "stateMutability": "nonpayable",
            "type": "function"
        },
        {
            "inputs": [
                {
                    "internalType": "address",
                    "name": "operator",
                    "type": "address"
                },
                {
                    "internalType": "bool",
                    "name": "approved",
                    "type": "bool"
                }
            ],
            "name": "setApprovalForAll",
            "outputs": [],
            "stateMutability": "nonpayable",
            "type": "function"
        },
        {
            "inputs": [
                {
                    "internalType": "address",
                    "name": "owner",
                    "type": "address"
                },
                {
                    "internalType": "uint256",
                    "name": "tokenId",
                    "type": "uint256"
                }
            ],
            "name": "stakeNFT",
            "outputs": [],
            "stateMutability": "nonpayable",
            "type": "function"
        },
        {
            "inputs": [
                {
                    "internalType": "bytes4",
                    "name": "interfaceId",
                    "type": "bytes4"
                }
            ],
            "name": "supportsInterface",
            "outputs": [
                {
                    "internalType": "bool",
                    "name": "",
                    "type": "bool"
                }
            ],
            "stateMutability": "view",
            "type": "function"
        },
        {
            "inputs": [],
            "name": "symbol",
            "outputs": [
                {
                    "internalType": "string",
                    "name": "",
                    "type": "string"
                }
            ],
            "stateMutability": "view",
            "type": "function"
        },
        {
            "inputs": [
                {
                    "internalType": "uint256",
                    "name": "tokenId",
                    "type": "uint256"
                }
            ],
            "name": "tokenURI",
            "outputs": [
                {
                    "internalType": "string",
                    "name": "",
                    "type": "string"
                }
            ],
            "stateMutability": "view",
            "type": "function"
        },
        {
            "inputs": [
                {
                    "internalType": "address",
                    "name": "from",
                    "type": "address"
                },
                {
                    "internalType": "address",
                    "name": "to",
                    "type": "address"
                },
                {
                    "internalType": "uint256",
                    "name": "tokenId",
                    "type": "uint256"
                }
            ],
            "name": "transferFrom",
            "outputs": [],
            "stateMutability": "nonpayable",
            "type": "function"
        },
        {
            "inputs": [
                {
                    "internalType": "address",
                    "name": "owner",
                    "type": "address"
                },
                {
                    "internalType": "uint256",
                    "name": "tokenId",
                    "type": "uint256"
                }
            ],
            "name": "unstakeNFT",
            "outputs": [],
            "stateMutability": "nonpayable",
            "type": "function"
        }
    ],
    "bytecode": "60806040523480156200001157600080fd5b506040516200285d3803806200285d8339810160408190526200003491620000c3565b60405180604001604052806007815260200166135a5b9d13919560ca1b8152506040518060400160405280600381526020016213919560ea1b81525081600090816200008191906200019a565b5060016200009082826200019a565b505065048c2739500060085550600780546001600160a01b0319166001600160a01b039290921691909117905562000266565b600060208284031215620000d657600080fd5b81516001600160a01b0381168114620000ee57600080fd5b9392505050565b634e487b7160e01b600052604160045260246000fd5b600181811c908216806200012057607f821691505b6020821081036200014157634e487b7160e01b600052602260045260246000fd5b50919050565b601f8211156200019557600081815260208120601f850160051c81016020861015620001705750805b601f850160051c820191505b8181101562000191578281556001016200017c565b5050505b505050565b81516001600160401b03811115620001b657620001b6620000f5565b620001ce81620001c784546200010b565b8462000147565b602080601f831160018114620002065760008415620001ed5750858301515b600019600386901b1c1916600185901b17855562000191565b600085815260208120601f198616915b82811015620002375788860151825594840194600190910190840162000216565b5085821015620002565787850151600019600388901b60f8161c191681555b5050505050600190811b01905550565b6125e780620002766000396000f3fe608060405234801561001057600080fd5b50600436106101585760003560e01c806395d89b41116100c3578063b88d4fde1161007c578063b88d4fde146102e5578063b8e7772f146102f8578063c41a360a14610321578063c87b56dd14610334578063e985e9c514610347578063f72301841461035a57600080fd5b806395d89b411461027e5780639c1c97d714610286578063a060e7e614610299578063a22cb465146102ac578063ad05f1b4146102bf578063b13270d5146102d257600080fd5b8063576f7ea711610115578063576f7ea7146102005780636352211e14610220578063673448dd14610233578063677e17fe1461024657806370a082311461025857806391a48a1e1461026b57600080fd5b806301ffc9a71461015d57806306fdde0314610185578063081812fc1461019a578063095ea7b3146101c557806323b872dd146101da57806342842e0e146101ed575b600080fd5b61017061016b366004611cb4565b61037a565b60405190151581526020015b60405180910390f35b61018d6103cc565b60405161017c9190611d29565b6101ad6101a8366004611d3c565b61045e565b6040516001600160a01b03909116815260200161017c565b6101d86101d3366004611d71565b610485565b005b6101d86101e8366004611d9b565b61059f565b6101d86101fb366004611d9b565b6105d0565b61021361020e366004611d3c565b6105eb565b60405161017c9190611dd7565b6101ad61022e366004611d3c565b61090a565b610170610241366004611ebc565b61096a565b6009545b60405190815260200161017c565b61024a610266366004611ebc565b610976565b6101d8610279366004611ed7565b6109fc565b61018d610bc2565b6101d8610294366004611d71565b610bd1565b6101d86102a7366004611fa5565b610d2e565b6101d86102ba366004612068565b610f4f565b6101d86102cd36600461209f565b610f5e565b6101d86102e0366004611d71565b610ff7565b6101d86102f33660046120d2565b611087565b61030b610306366004611d3c565b6110bf565b60405161017c9a9998979695949392919061214e565b6101ad61032f366004611d3c565b61133f565b61018d610342366004611d3c565b61134a565b6101706103553660046121e2565b61145a565b61024a610368366004611ebc565b600a6020526000908152604090205481565b60006001600160e01b031982166380ac58cd60e01b14806103ab57506001600160e01b03198216635b5e139f60e01b145b806103c657506301ffc9a760e01b6001600160e01b03198316145b92915050565b6060600080546103db90612215565b80601f016020809104026020016040519081016040528092919081815260200182805461040790612215565b80156104545780601f1061042957610100808354040283529160200191610454565b820191906000526020600020905b81548152906001019060200180831161043757829003601f168201915b5050505050905090565b600061046982611488565b506000908152600460205260409020546001600160a01b031690565b60006104908261090a565b9050806001600160a01b0316836001600160a01b0316036105025760405162461bcd60e51b815260206004820152602160248201527f4552433732313a20617070726f76616c20746f2063757272656e74206f776e656044820152603960f91b60648201526084015b60405180910390fd5b336001600160a01b038216148061051e575061051e813361145a565b6105905760405162461bcd60e51b815260206004820152603e60248201527f4552433732313a20617070726f76652063616c6c6572206973206e6f7420746f60448201527f6b656e206f776e6572206e6f7220617070726f76656420666f7220616c6c000060648201526084016104f9565b61059a83836114ea565b505050565b6105a93382611558565b6105c55760405162461bcd60e51b81526004016104f99061224f565b61059a8383836115b6565b61059a83838360405180602001604052806000815250611087565b61064e60405180610140016040528060006001600160a01b03168152602001600081526020016060815260200160608152602001606081526020016060815260200160001515815260200160008152602001600015158152602001600081525090565b6000828152600b602090815260409182902082516101408101845281546001600160a01b03168152600182015492810192909252600281018054929391929184019161069990612215565b80601f01602080910402602001604051908101604052809291908181526020018280546106c590612215565b80156107125780601f106106e757610100808354040283529160200191610712565b820191906000526020600020905b8154815290600101906020018083116106f557829003601f168201915b5050505050815260200160038201805461072b90612215565b80601f016020809104026020016040519081016040528092919081815260200182805461075790612215565b80156107a45780601f10610779576101008083540402835291602001916107a4565b820191906000526020600020905b81548152906001019060200180831161078757829003601f168201915b505050505081526020016004820180546107bd90612215565b80601f01602080910402602001604051908101604052809291908181526020018280546107e990612215565b80156108365780601f1061080b57610100808354040283529160200191610836565b820191906000526020600020905b81548152906001019060200180831161081957829003601f168201915b5050505050815260200160058201805461084f90612215565b80601f016020809104026020016040519081016040528092919081815260200182805461087b90612215565b80156108c85780601f1061089d576101008083540402835291602001916108c8565b820191906000526020600020905b8154815290600101906020018083116108ab57829003601f168201915b5050509183525050600682015460ff90811615156020830152600783015460408301526008830154161515606082015260099091015460809091015292915050565b6000818152600260205260408120546001600160a01b0316806103c65760405162461bcd60e51b8152602060048201526018602482015277115490cdcc8c4e881a5b9d985b1a59081d1bdad95b88125160421b60448201526064016104f9565b60006103c6823061145a565b60006001600160a01b0382166109e05760405162461bcd60e51b815260206004820152602960248201527f4552433732313a2061646472657373207a65726f206973206e6f7420612076616044820152683634b21037bbb732b960b91b60648201526084016104f9565b506001600160a01b031660009081526003602052604090205490565b6007546040516305ea340f60e11b8152336004820152602481018390526001600160a01b0390911690630bd4681e90604401602060405180830381865afa158015610a4b573d6000803e3d6000fd5b505050506040513d601f19601f82011682018060405250810190610a6f919061229d565b610ab05760405162461bcd60e51b8152602060048201526012602482015271496e73756666696369656e742066756e647360701b60448201526064016104f9565b6000828152600b6020526040908190205460075491516323b872dd60e01b81526001600160a01b0391821692909116906323b872dd90610af8903390859087906004016122ba565b6020604051808303816000875af1158015610b17573d6000803e3d6000fd5b505050506040513d601f19601f82011682018060405250810190610b3b919061229d565b506040516323b872dd60e01b815230906323b872dd90610b63908490339088906004016122ba565b600060405180830381600087803b158015610b7d57600080fd5b505af1158015610b91573d6000803e3d6000fd5b50505060009384525050600b602052506040902080546001600160a01b03191633178155600601805460ff19169055565b6060600180546103db90612215565b6000818152600b60205260409020546001600160a01b03838116911614610c3a5760405162461bcd60e51b815260206004820181905260248201527f4f6e6c79206f776e65722063616e20756e7374616b6520686973204e4654732e60448201526064016104f9565b6000818152600b6020526040812060090154610c5690426122f4565b905060006064601e6018603c80610c6d878661230b565b610c779190612340565b610c819190612340565b610c8b9190612340565b610c959190612340565b610c9f9190612340565b6007546008549192506001600160a01b0316906323b872dd9030903390610cc6908661230b565b6040518463ffffffff1660e01b8152600401610ce4939291906122ba565b6020604051808303816000875af1158015610d03573d6000803e3d6000fd5b505050506040513d601f19601f82011682018060405250810190610d27919061229d565b5050505050565b6007546040516323b872dd60e01b81526001600160a01b03909116906323b872dd90610d62903390309086906004016122ba565b6020604051808303816000875af1158015610d81573d6000803e3d6000fd5b505050506040513d601f19601f82011682018060405250810190610da5919061229d565b5060098054906000610db683612354565b9190505550610dc733600954611752565b610dd360095483611894565b604080516101408101825233815260095460208083018281528385018a8152606085018a90526080850189905260a08501889052600060c0860181905260e0860181905261010086018190526101208601819052938452600b90925293909120825181546001600160a01b0319166001600160a01b0390911617815592516001840155519091906002820190610e6990826123bb565b5060608201516003820190610e7e90826123bb565b5060808201516004820190610e9390826123bb565b5060a08201516005820190610ea890826123bb565b5060c082015160068201805491151560ff1992831617905560e083015160078301556101008301516008830180549115159190921617905561012090910151600990910155336000908152600a60205260408120805491610f0883612354565b91905055507fe578c8f75165e747c939a516a93901610990f0f120d839b08ce89b77ad220f1e60095483604051610f4092919061247b565b60405180910390a15050505050565b610f5a338383611927565b5050565b6000828152600b60205260409020546001600160a01b03848116911614610fc75760405162461bcd60e51b815260206004820152601c60248201527f4f6e6c79206f776e65722063616e206c69737420686973204e4654210000000060448201526064016104f9565b610fd2306001610f4f565b6000918252600b602052604090912060068101805460ff191660011790556007015550565b6000818152600b60205260409020546001600160a01b038381169116146110605760405162461bcd60e51b815260206004820152601e60248201527f4f6e6c79206f776e65722063616e207374616b6520686973204e4654732e000060448201526064016104f9565b6000908152600b6020526040902060088101805460ff191660011790554260099091015550565b6110913383611558565b6110ad5760405162461bcd60e51b81526004016104f99061224f565b6110b9848484846119f5565b50505050565b600b602052600090815260409020805460018201546002830180546001600160a01b039093169391926110f190612215565b80601f016020809104026020016040519081016040528092919081815260200182805461111d90612215565b801561116a5780601f1061113f5761010080835404028352916020019161116a565b820191906000526020600020905b81548152906001019060200180831161114d57829003601f168201915b50505050509080600301805461117f90612215565b80601f01602080910402602001604051908101604052809291908181526020018280546111ab90612215565b80156111f85780601f106111cd576101008083540402835291602001916111f8565b820191906000526020600020905b8154815290600101906020018083116111db57829003601f168201915b50505050509080600401805461120d90612215565b80601f016020809104026020016040519081016040528092919081815260200182805461123990612215565b80156112865780601f1061125b57610100808354040283529160200191611286565b820191906000526020600020905b81548152906001019060200180831161126957829003601f168201915b50505050509080600501805461129b90612215565b80601f01602080910402602001604051908101604052809291908181526020018280546112c790612215565b80156113145780601f106112e957610100808354040283529160200191611314565b820191906000526020600020905b8154815290600101906020018083116112f757829003601f168201915b505050600684015460078501546008860154600990960154949560ff9283169591945090911691508a565b60006103c68261090a565b606061135582611488565b6000828152600660205260408120805461136e90612215565b80601f016020809104026020016040519081016040528092919081815260200182805461139a90612215565b80156113e75780601f106113bc576101008083540402835291602001916113e7565b820191906000526020600020905b8154815290600101906020018083116113ca57829003601f168201915b50505050509050600061140560408051602081019091526000815290565b90508051600003611417575092915050565b815115611449578082604051602001611431929190612494565b60405160208183030381529060405292505050919050565b61145284611a28565b949350505050565b6001600160a01b03918216600090815260056020908152604080832093909416825291909152205460ff1690565b6000818152600260205260409020546001600160a01b03166114e75760405162461bcd60e51b8152602060048201526018602482015277115490cdcc8c4e881a5b9d985b1a59081d1bdad95b88125160421b60448201526064016104f9565b50565b600081815260046020526040902080546001600160a01b0319166001600160a01b038416908117909155819061151f8261090a565b6001600160a01b03167f8c5be1e5ebec7d5bd14f71427d1e84f3dd0314c0f7b2291e5b200ac8c7c3b92560405160405180910390a45050565b6000806115648361090a565b9050806001600160a01b0316846001600160a01b0316148061158b575061158b818561145a565b806114525750836001600160a01b03166115a48461045e565b6001600160a01b031614949350505050565b826001600160a01b03166115c98261090a565b6001600160a01b03161461162d5760405162461bcd60e51b815260206004820152602560248201527f4552433732313a207472616e736665722066726f6d20696e636f72726563742060448201526437bbb732b960d91b60648201526084016104f9565b6001600160a01b03821661168f5760405162461bcd60e51b8152602060048201526024808201527f4552433732313a207472616e7366657220746f20746865207a65726f206164646044820152637265737360e01b60648201526084016104f9565b61169a6000826114ea565b6001600160a01b03831660009081526003602052604081208054600192906116c39084906122f4565b90915550506001600160a01b03821660009081526003602052604081208054600192906116f19084906124c3565b909155505060008181526002602052604080822080546001600160a01b0319166001600160a01b0386811691821790925591518493918716917fddf252ad1be2c89b69c2b068fc378daa952ba7f163c4a11628f55a4df523b3ef91a4505050565b6001600160a01b0382166117a85760405162461bcd60e51b815260206004820181905260248201527f4552433732313a206d696e7420746f20746865207a65726f206164647265737360448201526064016104f9565b6000818152600260205260409020546001600160a01b03161561180d5760405162461bcd60e51b815260206004820152601c60248201527f4552433732313a20746f6b656e20616c7265616479206d696e7465640000000060448201526064016104f9565b6001600160a01b03821660009081526003602052604081208054600192906118369084906124c3565b909155505060008181526002602052604080822080546001600160a01b0319166001600160a01b03861690811790915590518392907fddf252ad1be2c89b69c2b068fc378daa952ba7f163c4a11628f55a4df523b3ef908290a45050565b6000828152600260205260409020546001600160a01b031661190f5760405162461bcd60e51b815260206004820152602e60248201527f45524337323155524953746f726167653a2055524920736574206f66206e6f6e60448201526d32bc34b9ba32b73a103a37b5b2b760911b60648201526084016104f9565b600082815260066020526040902061059a82826123bb565b816001600160a01b0316836001600160a01b0316036119885760405162461bcd60e51b815260206004820152601960248201527f4552433732313a20617070726f766520746f2063616c6c65720000000000000060448201526064016104f9565b6001600160a01b03838116600081815260056020908152604080832094871680845294825291829020805460ff191686151590811790915591519182527f17307eab39ab6107e8899845ad3d59bd9653f200f220920489ca2b5937696c31910160405180910390a3505050565b611a008484846115b6565b611a0c84848484611a9c565b6110b95760405162461bcd60e51b81526004016104f9906124db565b6060611a3382611488565b6000611a4a60408051602081019091526000815290565b90506000815111611a6a5760405180602001604052806000815250611a95565b80611a7484611b9d565b604051602001611a85929190612494565b6040516020818303038152906040525b9392505050565b60006001600160a01b0384163b15611b9257604051630a85bd0160e11b81526001600160a01b0385169063150b7a0290611ae090339089908890889060040161252d565b6020604051808303816000875af1925050508015611b1b575060408051601f3d908101601f19168201909252611b189181019061256a565b60015b611b78573d808015611b49576040519150601f19603f3d011682016040523d82523d6000602084013e611b4e565b606091505b508051600003611b705760405162461bcd60e51b81526004016104f9906124db565b805181602001fd5b6001600160e01b031916630a85bd0160e11b149050611452565b506001949350505050565b606081600003611bc45750506040805180820190915260018152600360fc1b602082015290565b8160005b8115611bee5780611bd881612354565b9150611be79050600a83612340565b9150611bc8565b60008167ffffffffffffffff811115611c0957611c09611ef9565b6040519080825280601f01601f191660200182016040528015611c33576020820181803683370190505b5090505b841561145257611c486001836122f4565b9150611c55600a86612587565b611c609060306124c3565b60f81b818381518110611c7557611c7561259b565b60200101906001600160f81b031916908160001a905350611c97600a86612340565b9450611c37565b6001600160e01b0319811681146114e757600080fd5b600060208284031215611cc657600080fd5b8135611a9581611c9e565b60005b83811015611cec578181015183820152602001611cd4565b838111156110b95750506000910152565b60008151808452611d15816020860160208601611cd1565b601f01601f19169290920160200192915050565b602081526000611a956020830184611cfd565b600060208284031215611d4e57600080fd5b5035919050565b80356001600160a01b0381168114611d6c57600080fd5b919050565b60008060408385031215611d8457600080fd5b611d8d83611d55565b946020939093013593505050565b600080600060608486031215611db057600080fd5b611db984611d55565b9250611dc760208501611d55565b9150604084013590509250925092565b60208152611df16020820183516001600160a01b03169052565b6020820151604082015260006040830151610140806060850152611e19610160850183611cfd565b91506060850151601f1980868503016080870152611e378483611cfd565b935060808701519150808685030160a0870152611e548483611cfd565b935060a08701519150808685030160c087015250611e728382611cfd565b92505060c0850151611e8860e086018215159052565b5060e085015161010085810191909152850151610120611eab8187018315159052565b959095015193019290925250919050565b600060208284031215611ece57600080fd5b611a9582611d55565b60008060408385031215611eea57600080fd5b50508035926020909101359150565b634e487b7160e01b600052604160045260246000fd5b600067ffffffffffffffff80841115611f2a57611f2a611ef9565b604051601f8501601f19908116603f01168101908282118183101715611f5257611f52611ef9565b81604052809350858152868686011115611f6b57600080fd5b858560208301376000602087830101525050509392505050565b600082601f830112611f9657600080fd5b611a9583833560208501611f0f565b600080600080600060a08688031215611fbd57600080fd5b853567ffffffffffffffff80821115611fd557600080fd5b611fe189838a01611f85565b96506020880135915080821115611ff757600080fd5b61200389838a01611f85565b9550604088013591508082111561201957600080fd5b61202589838a01611f85565b9450606088013591508082111561203b57600080fd5b5061204888828901611f85565b95989497509295608001359392505050565b80151581146114e757600080fd5b6000806040838503121561207b57600080fd5b61208483611d55565b915060208301356120948161205a565b809150509250929050565b6000806000606084860312156120b457600080fd5b6120bd84611d55565b95602085013595506040909401359392505050565b600080600080608085870312156120e857600080fd5b6120f185611d55565b93506120ff60208601611d55565b925060408501359150606085013567ffffffffffffffff81111561212257600080fd5b8501601f8101871361213357600080fd5b61214287823560208401611f0f565b91505092959194509250565b6001600160a01b038b168152602081018a90526101406040820181905260009061217a8382018c611cfd565b9050828103606084015261218e818b611cfd565b905082810360808401526121a2818a611cfd565b905082810360a08401526121b68189611cfd565b96151560c0840152505060e0810193909352901515610100830152610120909101529695505050505050565b600080604083850312156121f557600080fd5b6121fe83611d55565b915061220c60208401611d55565b90509250929050565b600181811c9082168061222957607f821691505b60208210810361224957634e487b7160e01b600052602260045260246000fd5b50919050565b6020808252602e908201527f4552433732313a2063616c6c6572206973206e6f7420746f6b656e206f776e6560408201526d1c881b9bdc88185c1c1c9bdd995960921b606082015260800190565b6000602082840312156122af57600080fd5b8151611a958161205a565b6001600160a01b039384168152919092166020820152604081019190915260600190565b634e487b7160e01b600052601160045260246000fd5b600082821015612306576123066122de565b500390565b6000816000190483118215151615612325576123256122de565b500290565b634e487b7160e01b600052601260045260246000fd5b60008261234f5761234f61232a565b500490565b600060018201612366576123666122de565b5060010190565b601f82111561059a57600081815260208120601f850160051c810160208610156123945750805b601f850160051c820191505b818110156123b3578281556001016123a0565b505050505050565b815167ffffffffffffffff8111156123d5576123d5611ef9565b6123e9816123e38454612215565b8461236d565b602080601f83116001811461241e57600084156124065750858301515b600019600386901b1c1916600185901b1785556123b3565b600085815260208120601f198616915b8281101561244d5788860151825594840194600190910190840161242e565b508582101561246b5787850151600019600388901b60f8161c191681555b5050505050600190811b01905550565b8281526040602082015260006114526040830184611cfd565b600083516124a6818460208801611cd1565b8351908301906124ba818360208801611cd1565b01949350505050565b600082198211156124d6576124d66122de565b500190565b60208082526032908201527f4552433732313a207472616e7366657220746f206e6f6e20455243373231526560408201527131b2b4bb32b91034b6b83632b6b2b73a32b960711b606082015260800190565b6001600160a01b038581168252841660208201526040810183905260806060820181905260009061256090830184611cfd565b9695505050505050565b60006020828403121561257c57600080fd5b8151611a9581611c9e565b6000826125965761259661232a565b500690565b634e487b7160e01b600052603260045260246000fdfea26469706673582212209a7c3dca89f1ab102b7dc72407f196a844f0496c34ee1ad4f5e3ae5a93922d2e64736f6c634300080f0033",
    "sourcePath": "/home/viktor02/Dev/Blockchain/nft-generator/contracts/NFTs.sol",
    "compiler": {
        "name": "solc",
        "version": "0.8.15+commit.e14f2714"
    },
    "functionHashes": {
        "AllNFTs(uint256)": "b8e7772f",
        "MintCount(address)": "f7230184",
        "approve(address,uint256)": "095ea7b3",
        "balanceOf(address)": "70a08231",
        "getApproved(uint256)": "081812fc",
        "getNFT(uint256)": "576f7ea7",
        "getOwner(uint256)": "c41a360a",
        "getTotalNFTsCount()": "677e17fe",
        "isApproved(address)": "673448dd",
        "isApprovedForAll(address,address)": "e985e9c5",
        "listNFT(address,uint256,uint256)": "ad05f1b4",
        "mintNFT(string,string,string,string,uint256)": "a060e7e6",
        "name()": "06fdde03",
        "ownerOf(uint256)": "6352211e",
        "safeTransferFrom(address,address,uint256)": "42842e0e",
        "safeTransferFrom(address,address,uint256,bytes)": "b88d4fde",
        "sellNFT(uint256,uint256)": "91a48a1e",
        "setApprovalForAll(address,bool)": "a22cb465",
        "stakeNFT(address,uint256)": "b13270d5",
        "supportsInterface(bytes4)": "01ffc9a7",
        "symbol()": "95d89b41",
        "tokenURI(uint256)": "c87b56dd",
        "transferFrom(address,address,uint256)": "23b872dd",
        "unstakeNFT(address,uint256)": "9c1c97d7"
    },
    "gasEstimates": {
        "creation": {
            "codeDepositCost": "1940600",
            "executionCost": "infinite",
            "totalCost": "infinite"
        },
        "external": {
            "AllNFTs(uint256)": "infinite",
            "MintCount(address)": "2651",
            "approve(address,uint256)": "infinite",
            "balanceOf(address)": "2700",
            "getApproved(uint256)": "4792",
            "getNFT(uint256)": "infinite",
            "getOwner(uint256)": "infinite",
            "getTotalNFTsCount()": "2370",
            "isApproved(address)": "2746",
            "isApprovedForAll(address,address)": "infinite",
            "listNFT(address,uint256,uint256)": "75430",
            "mintNFT(string,string,string,string,uint256)": "infinite",
            "name()": "infinite",
            "ownerOf(uint256)": "2583",
            "safeTransferFrom(address,address,uint256)": "infinite",
            "safeTransferFrom(address,address,uint256,bytes)": "infinite",
            "sellNFT(uint256,uint256)": "infinite",
            "setApprovalForAll(address,bool)": "26801",
            "stakeNFT(address,uint256)": "49087",
            "supportsInterface(bytes4)": "534",
            "symbol()": "infinite",
            "tokenURI(uint256)": "infinite",
            "transferFrom(address,address,uint256)": "infinite",
            "unstakeNFT(address,uint256)": "infinite"
        }
    }
}